{
	"data": {
		"bytecode": {
			"linkReferences": {},
			"object": "608060405234801561001057600080fd5b5061001a3361001f565b61006f565b600080546001600160a01b038381166001600160a01b0319831681178455604051919092169283917f8be0079c531659141344cd1fd0a4f28419497f9722a3daafe3b4186f6b6457e09190a35050565b6119a18061007e6000396000f3fe608060405234801561001057600080fd5b506004361061007d5760003560e01c80638da5cb5b1161005b5780638da5cb5b146100ce578063b09614d6146100df578063f2fde38b146100e7578063f5ff5c76146100fa57600080fd5b8063184b955914610082578063715018a61461009757806381f17f3f1461009f575b600080fd5b6100956100903660046103a3565b61010d565b005b6100956101ff565b6001546100b2906001600160a01b031681565b6040516001600160a01b03909116815260200160405180910390f35b6000546001600160a01b03166100b2565b610095610235565b6100956100f5366004610381565b61026d565b6002546100b2906001600160a01b031681565b6000546001600160a01b031633146101405760405162461bcd60e51b8152600401610137906103e6565b60405180910390fd5b8260405161014d90610358565b6001600160a01b039091168152602001604051809103906000f080158015610179573d6000803e3d6000fd5b50600180546001600160a01b0319166001600160a01b0392831690811790915560405163184b955960e01b81528583166004820152848316602482015291831660448301529063184b955990606401600060405180830381600087803b1580156101e257600080fd5b505af11580156101f6573d6000803e3d6000fd5b50505050505050565b6000546001600160a01b031633146102295760405162461bcd60e51b8152600401610137906103e6565b6102336000610308565b565b6000546001600160a01b0316331461025f5760405162461bcd60e51b8152600401610137906103e6565b6000546001600160a01b0316ff5b6000546001600160a01b031633146102975760405162461bcd60e51b8152600401610137906103e6565b6001600160a01b0381166102fc5760405162461bcd60e51b815260206004820152602660248201527f4f776e61626c653a206e6577206f776e657220697320746865207a65726f206160448201526564647265737360d01b6064820152608401610137565b61030581610308565b50565b600080546001600160a01b038381166001600160a01b0319831681178455604051919092169283917f8be0079c531659141344cd1fd0a4f28419497f9722a3daafe3b4186f6b6457e09190a35050565b6115508061041c83390190565b80356001600160a01b038116811461037c57600080fd5b919050565b60006020828403121561039357600080fd5b61039c82610365565b9392505050565b6000806000606084860312156103b857600080fd5b6103c184610365565b92506103cf60208501610365565b91506103dd60408501610365565b90509250925092565b6020808252818101527f4f776e61626c653a2063616c6c6572206973206e6f7420746865206f776e657260408201526060019056fe608060405234801561001057600080fd5b5060405161155038038061155083398101604081905261002f91610054565b600380546001600160a01b0319166001600160a01b0392909216919091179055610084565b60006020828403121561006657600080fd5b81516001600160a01b038116811461007d57600080fd5b9392505050565b6114bd806100936000396000f3fe608060405234801561001057600080fd5b50600436106100885760003560e01c806380c9419e1161005b57806380c9419e146101325780639110df85146101a45780639415a8df146101b7578063d957af70146101c857600080fd5b8063184b95591461008d578063481c6a75146100dc57806352de2b7a1461010c578063795b4e051461011f575b600080fd5b6100da61009b366004611239565b600580546001600160a01b039485166001600160a01b031991821617909155600180549385169382169390931790925560048054919093169116179055565b005b6003546100ef906001600160a01b031681565b6040516001600160a01b0390911681526020015b60405180910390f35b6100da61011a3660046112a6565b6101db565b6100da61012d366004611326565b610401565b6101456101403660046112a6565b6108fe565b604080519b8c5260208c019a909a52988a01979097526060890195909552608088019390935260a087019190915260c086015260e08501526101008401526001600160a01b039081166101208401521661014082015261016001610103565b6100da6101b23660046112d8565b610976565b600054604051908152602001610103565b6100da6101d63660046112fa565b610ac0565b60006101e8600183611402565b815481106101f8576101f8611459565b60009182526020909120600b90910201600901546001600160a01b0316331480156102515750600061022b600183611402565b8154811061023b5761023b611459565b90600052602060002090600b0201600801546000145b6102ae5760405162461bcd60e51b815260206004820152602360248201527f5468652063757272656e74207573657220686173206e6f207065726d697373696044820152626f6e7360e81b60648201526084015b60405180910390fd5b600180546005546001600160a01b03918216926342842e0e929091169033906000906102da9087611402565b815481106102ea576102ea611459565b90600052602060002090600b0201600001546040518463ffffffff1660e01b815260040161031a93929190611393565b600060405180830381600087803b15801561033457600080fd5b505af1158015610348573d6000803e3d6000fd5b50505050600060018261035b9190611402565b8154811061036b5761036b611459565b600091825260208220600b9091020181815560018101829055600281018290556003810182905560048101829055600581018290556006810182905560078101829055600881018290556009810180546001600160a01b0319908116909155600a9091018054909116905560405182917ff6ec89ade5e808fa9649af4bfc0a8a0310dbaed12a78afcb4ac94969ec960e7191a250565b6001546040516331a9108f60e11b81526004810186905233916001600160a01b031690636352211e9060240160206040518083038186803b15801561044557600080fd5b505afa158015610459573d6000803e3d6000fd5b505050506040513d601f19601f8201168201806040525081019061047d9190611215565b6001600160a01b03161461049057600080fd5b60006104a164010000000042611419565b905060006104af84846113e3565b6104b990866113e3565b600154604051631161a04b60e31b8152600481018990529192506000916001600160a01b0390911690638b0d02589060240160206040518083038186803b15801561050357600080fd5b505afa158015610517573d6000803e3d6000fd5b505050506040513d601f19601f8201168201806040525081019061053b91906112bf565b9050600061054a8560026113e3565b600080549192509061055d9060016113b7565b905060006040518061016001604052808b81526020018381526020018581526020018a815260200189815260200188815260200186815260200184815260200160008152602001600160009054906101000a90046001600160a01b03166001600160a01b0316636352211e8d6040518263ffffffff1660e01b81526004016105e791815260200190565b60206040518083038186803b1580156105ff57600080fd5b505afa158015610613573d6000803e3d6000fd5b505050506040513d601f19601f820116820180604052508101906106379190611215565b6001600160a01b039081168252600060209283018190528054600181810183559180528451600b9091027f290decd9548b62a8d60345a988386fc84ba6bc95484008f6362f93160ef3e563810191909155928401517f290decd9548b62a8d60345a988386fc84ba6bc95484008f6362f93160ef3e5648401556040808501517f290decd9548b62a8d60345a988386fc84ba6bc95484008f6362f93160ef3e56585015560608501517f290decd9548b62a8d60345a988386fc84ba6bc95484008f6362f93160ef3e56685015560808501517f290decd9548b62a8d60345a988386fc84ba6bc95484008f6362f93160ef3e56785015560a08501517f290decd9548b62a8d60345a988386fc84ba6bc95484008f6362f93160ef3e56885015560c08501517f290decd9548b62a8d60345a988386fc84ba6bc95484008f6362f93160ef3e56985015560e08501517f290decd9548b62a8d60345a988386fc84ba6bc95484008f6362f93160ef3e56a8501556101008501517f290decd9548b62a8d60345a988386fc84ba6bc95484008f6362f93160ef3e56b8501556101208501517f290decd9548b62a8d60345a988386fc84ba6bc95484008f6362f93160ef3e56c850180549185166001600160a01b03199283161790556101408601517f290decd9548b62a8d60345a988386fc84ba6bc95484008f6362f93160ef3e56d90950180549585169590911694909417909355546005549251632142170760e11b81529394508116926342842e0e926108779233929116908f90600401611393565b600060405180830381600087803b15801561089157600080fd5b505af11580156108a5573d6000803e3d6000fd5b5050604080518d8152602081018d90529081018b9052606081018a90527f5872c68779d81642c055cd59d2dcb5acdd5dcfed8826071ffbb442c79b552b569250608001905060405180910390a150505050505050505050565b6000818154811061090e57600080fd5b60009182526020909120600b9091020180546001820154600283015460038401546004850154600586015460068701546007880154600889015460098a0154600a909a0154989a50969895979496939592949193909290916001600160a01b0391821691168b565b806000610984600185611402565b8154811061099457610994611459565b90600052602060002090600b020160030154146109e35760405162461bcd60e51b815260206004820152600d60248201526c125b98dbdc9c9958dd08189a59609a1b60448201526064016102a5565b600454610a34906001600160a01b0316336000610a01600187611402565b81548110610a1157610a11611459565b600091825260209091206009600b9092020101546001600160a01b0316846110e9565b60016000610a428285611402565b81548110610a5257610a52611459565b90600052602060002090600b020160080181905550336000600184610a779190611402565b81548110610a8757610a87611459565b90600052602060002090600b0201600a0160006101000a8154816001600160a01b0302191690836001600160a01b031602179055505050565b6000610acd600185611402565b81548110610add57610add611459565b90600052602060002090600b0201600401548211610d64578160646000610b05600187611402565b81548110610b1557610b15611459565b90600052602060002090600b020160050154610b3191906113cf565b6000610b3e600187611402565b81548110610b4e57610b4e611459565b90600052602060002090600b020160030154610b6a91906113e3565b610b7491906113e3565b6000610b81600186611402565b81548110610b9157610b91611459565b90600052602060002090600b020160030154610bad91906113b7565b811015610bb957600080fd5b600454610cc1906001600160a01b0316336000610bd7600188611402565b81548110610be757610be7611459565b600091825260208220600a600b9092020101546001600160a01b0316908690606490610c1460018b611402565b81548110610c2457610c24611459565b90600052602060002090600b020160050154610c4091906113cf565b6000610c4d60018b611402565b81548110610c5d57610c5d611459565b90600052602060002090600b020160030154610c7991906113e3565b610c8391906113e3565b6000610c9060018a611402565b81548110610ca057610ca0611459565b90600052602060002090600b020160030154610cbc91906113b7565b6110e9565b600180546005546001600160a01b03918216926342842e0e92909116903390600090610ced9089611402565b81548110610cfd57610cfd611459565b90600052602060002090600b0201600001546040518463ffffffff1660e01b8152600401610d2d93929190611393565b600060405180830381600087803b158015610d4757600080fd5b505af1158015610d5b573d6000803e3d6000fd5b505050506110b5565b60036000610d73600186611402565b81548110610d8357610d83611459565b90600052602060002090600b02016004015483610da09190611402565b11610f9e576000606481610db5600187611402565b81548110610dc557610dc5611459565b90600052602060002090600b0201600701546000600187610de69190611402565b81548110610df657610df6611459565b90600052602060002090600b02016004015485610e139190611402565b610e1d91906113e3565b610e2791906113cf565b6000610e34600187611402565b81548110610e4457610e44611459565b90600052602060002090600b0201600601546000600187610e659190611402565b81548110610e7557610e75611459565b90600052602060002090600b020160030154610e9191906113b7565b610e9b91906113b7565b9050808214610ea957600080fd5b600454610efa906001600160a01b0316336000610ec7600189611402565b81548110610ed757610ed7611459565b60009182526020909120600a600b9092020101546001600160a01b0316846110e9565b600180546005546001600160a01b03918216926342842e0e92909116903390600090610f26908a611402565b81548110610f3657610f36611459565b90600052602060002090600b0201600001546040518463ffffffff1660e01b8152600401610f6693929190611393565b600060405180830381600087803b158015610f8057600080fd5b505af1158015610f94573d6000803e3d6000fd5b50505050506110b5565b60036000610fad600186611402565b81548110610fbd57610fbd611459565b90600052602060002090600b02016004015483610fda9190611402565b11156110b557600180546005546001600160a01b03918216926342842e0e929091169060009061100a9088611402565b8154811061101a5761101a611459565b600091825260208220600a600b9092020101546001600160a01b031690611042600189611402565b8154811061105257611052611459565b90600052602060002090600b0201600001546040518463ffffffff1660e01b815260040161108293929190611393565b600060405180830381600087803b15801561109c57600080fd5b505af11580156110b0573d6000803e3d6000fd5b505050505b8082847f84150d563c486763473e5a92eeb9297b1ee15fd60a18bc0b93ffe30bda41b2d060405160405180910390a4505050565b600080856001600160a01b03166323b872dd86868660405160240161111093929190611393565b6040516020818303038152906040529060e01b6020820180516001600160e01b0383818316178352505050506040516111499190611358565b6000604051808303816000865af19150503d8060008114611186576040519150601f19603f3d011682016040523d82523d6000602084013e61118b565b606091505b50915091508180156111b55750805115806111b55750808060200190518101906111b59190611284565b61120d5760405162461bcd60e51b8152602060048201526024808201527f5472616e7366657248656c7065723a205452414e534645525f46524f4d5f46416044820152631253115160e21b60648201526084016102a5565b505050505050565b60006020828403121561122757600080fd5b81516112328161146f565b9392505050565b60008060006060848603121561124e57600080fd5b83356112598161146f565b925060208401356112698161146f565b915060408401356112798161146f565b809150509250925092565b60006020828403121561129657600080fd5b8151801515811461123257600080fd5b6000602082840312156112b857600080fd5b5035919050565b6000602082840312156112d157600080fd5b5051919050565b600080604083850312156112eb57600080fd5b50508035926020909101359150565b60008060006060848603121561130f57600080fd5b505081359360208301359350604090920135919050565b6000806000806080858703121561133c57600080fd5b5050823594602084013594506040840135936060013592509050565b6000825160005b81811015611379576020818601810151858301520161135f565b81811115611388576000828501525b509190910192915050565b6001600160a01b039384168152919092166020820152604081019190915260600190565b600082198211156113ca576113ca61142d565b500190565b6000826113de576113de611443565b500490565b60008160001904831182151516156113fd576113fd61142d565b500290565b6000828210156114145761141461142d565b500390565b60008261142857611428611443565b500690565b634e487b7160e01b600052601160045260246000fd5b634e487b7160e01b600052601260045260246000fd5b634e487b7160e01b600052603260045260246000fd5b6001600160a01b038116811461148457600080fd5b5056fea264697066735822122005e0356323b28430a58e933e9a90daa7600f31814e131c3ea2b7c97b3a8d577264736f6c63430008070033a26469706673582212205283b671b1544a0b45d94f4e8fa11e8f4ba330873171ec743096a0d65a00856364736f6c63430008070033",
			"opcodes": "PUSH1 0x80 PUSH1 0x40 MSTORE CALLVALUE DUP1 ISZERO PUSH2 0x10 JUMPI PUSH1 0x0 DUP1 REVERT JUMPDEST POP PUSH2 0x1A CALLER PUSH2 0x1F JUMP JUMPDEST PUSH2 0x6F JUMP JUMPDEST PUSH1 0x0 DUP1 SLOAD PUSH1 0x1 PUSH1 0x1 PUSH1 0xA0 SHL SUB DUP4 DUP2 AND PUSH1 0x1 PUSH1 0x1 PUSH1 0xA0 SHL SUB NOT DUP4 AND DUP2 OR DUP5 SSTORE PUSH1 0x40 MLOAD SWAP2 SWAP1 SWAP3 AND SWAP3 DUP4 SWAP2 PUSH32 0x8BE0079C531659141344CD1FD0A4F28419497F9722A3DAAFE3B4186F6B6457E0 SWAP2 SWAP1 LOG3 POP POP JUMP JUMPDEST PUSH2 0x19A1 DUP1 PUSH2 0x7E PUSH1 0x0 CODECOPY PUSH1 0x0 RETURN INVALID PUSH1 0x80 PUSH1 0x40 MSTORE CALLVALUE DUP1 ISZERO PUSH2 0x10 JUMPI PUSH1 0x0 DUP1 REVERT JUMPDEST POP PUSH1 0x4 CALLDATASIZE LT PUSH2 0x7D JUMPI PUSH1 0x0 CALLDATALOAD PUSH1 0xE0 SHR DUP1 PUSH4 0x8DA5CB5B GT PUSH2 0x5B JUMPI DUP1 PUSH4 0x8DA5CB5B EQ PUSH2 0xCE JUMPI DUP1 PUSH4 0xB09614D6 EQ PUSH2 0xDF JUMPI DUP1 PUSH4 0xF2FDE38B EQ PUSH2 0xE7 JUMPI DUP1 PUSH4 0xF5FF5C76 EQ PUSH2 0xFA JUMPI PUSH1 0x0 DUP1 REVERT JUMPDEST DUP1 PUSH4 0x184B9559 EQ PUSH2 0x82 JUMPI DUP1 PUSH4 0x715018A6 EQ PUSH2 0x97 JUMPI DUP1 PUSH4 0x81F17F3F EQ PUSH2 0x9F JUMPI JUMPDEST PUSH1 0x0 DUP1 REVERT JUMPDEST PUSH2 0x95 PUSH2 0x90 CALLDATASIZE PUSH1 0x4 PUSH2 0x3A3 JUMP JUMPDEST PUSH2 0x10D JUMP JUMPDEST STOP JUMPDEST PUSH2 0x95 PUSH2 0x1FF JUMP JUMPDEST PUSH1 0x1 SLOAD PUSH2 0xB2 SWAP1 PUSH1 0x1 PUSH1 0x1 PUSH1 0xA0 SHL SUB AND DUP2 JUMP JUMPDEST PUSH1 0x40 MLOAD PUSH1 0x1 PUSH1 0x1 PUSH1 0xA0 SHL SUB SWAP1 SWAP2 AND DUP2 MSTORE PUSH1 0x20 ADD PUSH1 0x40 MLOAD DUP1 SWAP2 SUB SWAP1 RETURN JUMPDEST PUSH1 0x0 SLOAD PUSH1 0x1 PUSH1 0x1 PUSH1 0xA0 SHL SUB AND PUSH2 0xB2 JUMP JUMPDEST PUSH2 0x95 PUSH2 0x235 JUMP JUMPDEST PUSH2 0x95 PUSH2 0xF5 CALLDATASIZE PUSH1 0x4 PUSH2 0x381 JUMP JUMPDEST PUSH2 0x26D JUMP JUMPDEST PUSH1 0x2 SLOAD PUSH2 0xB2 SWAP1 PUSH1 0x1 PUSH1 0x1 PUSH1 0xA0 SHL SUB AND DUP2 JUMP JUMPDEST PUSH1 0x0 SLOAD PUSH1 0x1 PUSH1 0x1 PUSH1 0xA0 SHL SUB AND CALLER EQ PUSH2 0x140 JUMPI PUSH1 0x40 MLOAD PUSH3 0x461BCD PUSH1 0xE5 SHL DUP2 MSTORE PUSH1 0x4 ADD PUSH2 0x137 SWAP1 PUSH2 0x3E6 JUMP JUMPDEST PUSH1 0x40 MLOAD DUP1 SWAP2 SUB SWAP1 REVERT JUMPDEST DUP3 PUSH1 0x40 MLOAD PUSH2 0x14D SWAP1 PUSH2 0x358 JUMP JUMPDEST PUSH1 0x1 PUSH1 0x1 PUSH1 0xA0 SHL SUB SWAP1 SWAP2 AND DUP2 MSTORE PUSH1 0x20 ADD PUSH1 0x40 MLOAD DUP1 SWAP2 SUB SWAP1 PUSH1 0x0 CREATE DUP1 ISZERO DUP1 ISZERO PUSH2 0x179 JUMPI RETURNDATASIZE PUSH1 0x0 DUP1 RETURNDATACOPY RETURNDATASIZE PUSH1 0x0 REVERT JUMPDEST POP PUSH1 0x1 DUP1 SLOAD PUSH1 0x1 PUSH1 0x1 PUSH1 0xA0 SHL SUB NOT AND PUSH1 0x1 PUSH1 0x1 PUSH1 0xA0 SHL SUB SWAP3 DUP4 AND SWAP1 DUP2 OR SWAP1 SWAP2 SSTORE PUSH1 0x40 MLOAD PUSH4 0x184B9559 PUSH1 0xE0 SHL DUP2 MSTORE DUP6 DUP4 AND PUSH1 0x4 DUP3 ADD MSTORE DUP5 DUP4 AND PUSH1 0x24 DUP3 ADD MSTORE SWAP2 DUP4 AND PUSH1 0x44 DUP4 ADD MSTORE SWAP1 PUSH4 0x184B9559 SWAP1 PUSH1 0x64 ADD PUSH1 0x0 PUSH1 0x40 MLOAD DUP1 DUP4 SUB DUP2 PUSH1 0x0 DUP8 DUP1 EXTCODESIZE ISZERO DUP1 ISZERO PUSH2 0x1E2 JUMPI PUSH1 0x0 DUP1 REVERT JUMPDEST POP GAS CALL ISZERO DUP1 ISZERO PUSH2 0x1F6 JUMPI RETURNDATASIZE PUSH1 0x0 DUP1 RETURNDATACOPY RETURNDATASIZE PUSH1 0x0 REVERT JUMPDEST POP POP POP POP POP POP POP JUMP JUMPDEST PUSH1 0x0 SLOAD PUSH1 0x1 PUSH1 0x1 PUSH1 0xA0 SHL SUB AND CALLER EQ PUSH2 0x229 JUMPI PUSH1 0x40 MLOAD PUSH3 0x461BCD PUSH1 0xE5 SHL DUP2 MSTORE PUSH1 0x4 ADD PUSH2 0x137 SWAP1 PUSH2 0x3E6 JUMP JUMPDEST PUSH2 0x233 PUSH1 0x0 PUSH2 0x308 JUMP JUMPDEST JUMP JUMPDEST PUSH1 0x0 SLOAD PUSH1 0x1 PUSH1 0x1 PUSH1 0xA0 SHL SUB AND CALLER EQ PUSH2 0x25F JUMPI PUSH1 0x40 MLOAD PUSH3 0x461BCD PUSH1 0xE5 SHL DUP2 MSTORE PUSH1 0x4 ADD PUSH2 0x137 SWAP1 PUSH2 0x3E6 JUMP JUMPDEST PUSH1 0x0 SLOAD PUSH1 0x1 PUSH1 0x1 PUSH1 0xA0 SHL SUB AND SELFDESTRUCT JUMPDEST PUSH1 0x0 SLOAD PUSH1 0x1 PUSH1 0x1 PUSH1 0xA0 SHL SUB AND CALLER EQ PUSH2 0x297 JUMPI PUSH1 0x40 MLOAD PUSH3 0x461BCD PUSH1 0xE5 SHL DUP2 MSTORE PUSH1 0x4 ADD PUSH2 0x137 SWAP1 PUSH2 0x3E6 JUMP JUMPDEST PUSH1 0x1 PUSH1 0x1 PUSH1 0xA0 SHL SUB DUP2 AND PUSH2 0x2FC JUMPI PUSH1 0x40 MLOAD PUSH3 0x461BCD PUSH1 0xE5 SHL DUP2 MSTORE PUSH1 0x20 PUSH1 0x4 DUP3 ADD MSTORE PUSH1 0x26 PUSH1 0x24 DUP3 ADD MSTORE PUSH32 0x4F776E61626C653A206E6577206F776E657220697320746865207A65726F2061 PUSH1 0x44 DUP3 ADD MSTORE PUSH6 0x646472657373 PUSH1 0xD0 SHL PUSH1 0x64 DUP3 ADD MSTORE PUSH1 0x84 ADD PUSH2 0x137 JUMP JUMPDEST PUSH2 0x305 DUP2 PUSH2 0x308 JUMP JUMPDEST POP JUMP JUMPDEST PUSH1 0x0 DUP1 SLOAD PUSH1 0x1 PUSH1 0x1 PUSH1 0xA0 SHL SUB DUP4 DUP2 AND PUSH1 0x1 PUSH1 0x1 PUSH1 0xA0 SHL SUB NOT DUP4 AND DUP2 OR DUP5 SSTORE PUSH1 0x40 MLOAD SWAP2 SWAP1 SWAP3 AND SWAP3 DUP4 SWAP2 PUSH32 0x8BE0079C531659141344CD1FD0A4F28419497F9722A3DAAFE3B4186F6B6457E0 SWAP2 SWAP1 LOG3 POP POP JUMP JUMPDEST PUSH2 0x1550 DUP1 PUSH2 0x41C DUP4 CODECOPY ADD SWAP1 JUMP JUMPDEST DUP1 CALLDATALOAD PUSH1 0x1 PUSH1 0x1 PUSH1 0xA0 SHL SUB DUP2 AND DUP2 EQ PUSH2 0x37C JUMPI PUSH1 0x0 DUP1 REVERT JUMPDEST SWAP2 SWAP1 POP JUMP JUMPDEST PUSH1 0x0 PUSH1 0x20 DUP3 DUP5 SUB SLT ISZERO PUSH2 0x393 JUMPI PUSH1 0x0 DUP1 REVERT JUMPDEST PUSH2 0x39C DUP3 PUSH2 0x365 JUMP JUMPDEST SWAP4 SWAP3 POP POP POP JUMP JUMPDEST PUSH1 0x0 DUP1 PUSH1 0x0 PUSH1 0x60 DUP5 DUP7 SUB SLT ISZERO PUSH2 0x3B8 JUMPI PUSH1 0x0 DUP1 REVERT JUMPDEST PUSH2 0x3C1 DUP5 PUSH2 0x365 JUMP JUMPDEST SWAP3 POP PUSH2 0x3CF PUSH1 0x20 DUP6 ADD PUSH2 0x365 JUMP JUMPDEST SWAP2 POP PUSH2 0x3DD PUSH1 0x40 DUP6 ADD PUSH2 0x365 JUMP JUMPDEST SWAP1 POP SWAP3 POP SWAP3 POP SWAP3 JUMP JUMPDEST PUSH1 0x20 DUP1 DUP3 MSTORE DUP2 DUP2 ADD MSTORE PUSH32 0x4F776E61626C653A2063616C6C6572206973206E6F7420746865206F776E6572 PUSH1 0x40 DUP3 ADD MSTORE PUSH1 0x60 ADD SWAP1 JUMP INVALID PUSH1 0x80 PUSH1 0x40 MSTORE CALLVALUE DUP1 ISZERO PUSH2 0x10 JUMPI PUSH1 0x0 DUP1 REVERT JUMPDEST POP PUSH1 0x40 MLOAD PUSH2 0x1550 CODESIZE SUB DUP1 PUSH2 0x1550 DUP4 CODECOPY DUP2 ADD PUSH1 0x40 DUP2 SWAP1 MSTORE PUSH2 0x2F SWAP2 PUSH2 0x54 JUMP JUMPDEST PUSH1 0x3 DUP1 SLOAD PUSH1 0x1 PUSH1 0x1 PUSH1 0xA0 SHL SUB NOT AND PUSH1 0x1 PUSH1 0x1 PUSH1 0xA0 SHL SUB SWAP3 SWAP1 SWAP3 AND SWAP2 SWAP1 SWAP2 OR SWAP1 SSTORE PUSH2 0x84 JUMP JUMPDEST PUSH1 0x0 PUSH1 0x20 DUP3 DUP5 SUB SLT ISZERO PUSH2 0x66 JUMPI PUSH1 0x0 DUP1 REVERT JUMPDEST DUP2 MLOAD PUSH1 0x1 PUSH1 0x1 PUSH1 0xA0 SHL SUB DUP2 AND DUP2 EQ PUSH2 0x7D JUMPI PUSH1 0x0 DUP1 REVERT JUMPDEST SWAP4 SWAP3 POP POP POP JUMP JUMPDEST PUSH2 0x14BD DUP1 PUSH2 0x93 PUSH1 0x0 CODECOPY PUSH1 0x0 RETURN INVALID PUSH1 0x80 PUSH1 0x40 MSTORE CALLVALUE DUP1 ISZERO PUSH2 0x10 JUMPI PUSH1 0x0 DUP1 REVERT JUMPDEST POP PUSH1 0x4 CALLDATASIZE LT PUSH2 0x88 JUMPI PUSH1 0x0 CALLDATALOAD PUSH1 0xE0 SHR DUP1 PUSH4 0x80C9419E GT PUSH2 0x5B JUMPI DUP1 PUSH4 0x80C9419E EQ PUSH2 0x132 JUMPI DUP1 PUSH4 0x9110DF85 EQ PUSH2 0x1A4 JUMPI DUP1 PUSH4 0x9415A8DF EQ PUSH2 0x1B7 JUMPI DUP1 PUSH4 0xD957AF70 EQ PUSH2 0x1C8 JUMPI PUSH1 0x0 DUP1 REVERT JUMPDEST DUP1 PUSH4 0x184B9559 EQ PUSH2 0x8D JUMPI DUP1 PUSH4 0x481C6A75 EQ PUSH2 0xDC JUMPI DUP1 PUSH4 0x52DE2B7A EQ PUSH2 0x10C JUMPI DUP1 PUSH4 0x795B4E05 EQ PUSH2 0x11F JUMPI JUMPDEST PUSH1 0x0 DUP1 REVERT JUMPDEST PUSH2 0xDA PUSH2 0x9B CALLDATASIZE PUSH1 0x4 PUSH2 0x1239 JUMP JUMPDEST PUSH1 0x5 DUP1 SLOAD PUSH1 0x1 PUSH1 0x1 PUSH1 0xA0 SHL SUB SWAP5 DUP6 AND PUSH1 0x1 PUSH1 0x1 PUSH1 0xA0 SHL SUB NOT SWAP2 DUP3 AND OR SWAP1 SWAP2 SSTORE PUSH1 0x1 DUP1 SLOAD SWAP4 DUP6 AND SWAP4 DUP3 AND SWAP4 SWAP1 SWAP4 OR SWAP1 SWAP3 SSTORE PUSH1 0x4 DUP1 SLOAD SWAP2 SWAP1 SWAP4 AND SWAP2 AND OR SWAP1 SSTORE JUMP JUMPDEST STOP JUMPDEST PUSH1 0x3 SLOAD PUSH2 0xEF SWAP1 PUSH1 0x1 PUSH1 0x1 PUSH1 0xA0 SHL SUB AND DUP2 JUMP JUMPDEST PUSH1 0x40 MLOAD PUSH1 0x1 PUSH1 0x1 PUSH1 0xA0 SHL SUB SWAP1 SWAP2 AND DUP2 MSTORE PUSH1 0x20 ADD JUMPDEST PUSH1 0x40 MLOAD DUP1 SWAP2 SUB SWAP1 RETURN JUMPDEST PUSH2 0xDA PUSH2 0x11A CALLDATASIZE PUSH1 0x4 PUSH2 0x12A6 JUMP JUMPDEST PUSH2 0x1DB JUMP JUMPDEST PUSH2 0xDA PUSH2 0x12D CALLDATASIZE PUSH1 0x4 PUSH2 0x1326 JUMP JUMPDEST PUSH2 0x401 JUMP JUMPDEST PUSH2 0x145 PUSH2 0x140 CALLDATASIZE PUSH1 0x4 PUSH2 0x12A6 JUMP JUMPDEST PUSH2 0x8FE JUMP JUMPDEST PUSH1 0x40 DUP1 MLOAD SWAP12 DUP13 MSTORE PUSH1 0x20 DUP13 ADD SWAP11 SWAP1 SWAP11 MSTORE SWAP9 DUP11 ADD SWAP8 SWAP1 SWAP8 MSTORE PUSH1 0x60 DUP10 ADD SWAP6 SWAP1 SWAP6 MSTORE PUSH1 0x80 DUP9 ADD SWAP4 SWAP1 SWAP4 MSTORE PUSH1 0xA0 DUP8 ADD SWAP2 SWAP1 SWAP2 MSTORE PUSH1 0xC0 DUP7 ADD MSTORE PUSH1 0xE0 DUP6 ADD MSTORE PUSH2 0x100 DUP5 ADD MSTORE PUSH1 0x1 PUSH1 0x1 PUSH1 0xA0 SHL SUB SWAP1 DUP2 AND PUSH2 0x120 DUP5 ADD MSTORE AND PUSH2 0x140 DUP3 ADD MSTORE PUSH2 0x160 ADD PUSH2 0x103 JUMP JUMPDEST PUSH2 0xDA PUSH2 0x1B2 CALLDATASIZE PUSH1 0x4 PUSH2 0x12D8 JUMP JUMPDEST PUSH2 0x976 JUMP JUMPDEST PUSH1 0x0 SLOAD PUSH1 0x40 MLOAD SWAP1 DUP2 MSTORE PUSH1 0x20 ADD PUSH2 0x103 JUMP JUMPDEST PUSH2 0xDA PUSH2 0x1D6 CALLDATASIZE PUSH1 0x4 PUSH2 0x12FA JUMP JUMPDEST PUSH2 0xAC0 JUMP JUMPDEST PUSH1 0x0 PUSH2 0x1E8 PUSH1 0x1 DUP4 PUSH2 0x1402 JUMP JUMPDEST DUP2 SLOAD DUP2 LT PUSH2 0x1F8 JUMPI PUSH2 0x1F8 PUSH2 0x1459 JUMP JUMPDEST PUSH1 0x0 SWAP2 DUP3 MSTORE PUSH1 0x20 SWAP1 SWAP2 KECCAK256 PUSH1 0xB SWAP1 SWAP2 MUL ADD PUSH1 0x9 ADD SLOAD PUSH1 0x1 PUSH1 0x1 PUSH1 0xA0 SHL SUB AND CALLER EQ DUP1 ISZERO PUSH2 0x251 JUMPI POP PUSH1 0x0 PUSH2 0x22B PUSH1 0x1 DUP4 PUSH2 0x1402 JUMP JUMPDEST DUP2 SLOAD DUP2 LT PUSH2 0x23B JUMPI PUSH2 0x23B PUSH2 0x1459 JUMP JUMPDEST SWAP1 PUSH1 0x0 MSTORE PUSH1 0x20 PUSH1 0x0 KECCAK256 SWAP1 PUSH1 0xB MUL ADD PUSH1 0x8 ADD SLOAD PUSH1 0x0 EQ JUMPDEST PUSH2 0x2AE JUMPI PUSH1 0x40 MLOAD PUSH3 0x461BCD PUSH1 0xE5 SHL DUP2 MSTORE PUSH1 0x20 PUSH1 0x4 DUP3 ADD MSTORE PUSH1 0x23 PUSH1 0x24 DUP3 ADD MSTORE PUSH32 0x5468652063757272656E74207573657220686173206E6F207065726D69737369 PUSH1 0x44 DUP3 ADD MSTORE PUSH3 0x6F6E73 PUSH1 0xE8 SHL PUSH1 0x64 DUP3 ADD MSTORE PUSH1 0x84 ADD JUMPDEST PUSH1 0x40 MLOAD DUP1 SWAP2 SUB SWAP1 REVERT JUMPDEST PUSH1 0x1 DUP1 SLOAD PUSH1 0x5 SLOAD PUSH1 0x1 PUSH1 0x1 PUSH1 0xA0 SHL SUB SWAP2 DUP3 AND SWAP3 PUSH4 0x42842E0E SWAP3 SWAP1 SWAP2 AND SWAP1 CALLER SWAP1 PUSH1 0x0 SWAP1 PUSH2 0x2DA SWAP1 DUP8 PUSH2 0x1402 JUMP JUMPDEST DUP2 SLOAD DUP2 LT PUSH2 0x2EA JUMPI PUSH2 0x2EA PUSH2 0x1459 JUMP JUMPDEST SWAP1 PUSH1 0x0 MSTORE PUSH1 0x20 PUSH1 0x0 KECCAK256 SWAP1 PUSH1 0xB MUL ADD PUSH1 0x0 ADD SLOAD PUSH1 0x40 MLOAD DUP5 PUSH4 0xFFFFFFFF AND PUSH1 0xE0 SHL DUP2 MSTORE PUSH1 0x4 ADD PUSH2 0x31A SWAP4 SWAP3 SWAP2 SWAP1 PUSH2 0x1393 JUMP JUMPDEST PUSH1 0x0 PUSH1 0x40 MLOAD DUP1 DUP4 SUB DUP2 PUSH1 0x0 DUP8 DUP1 EXTCODESIZE ISZERO DUP1 ISZERO PUSH2 0x334 JUMPI PUSH1 0x0 DUP1 REVERT JUMPDEST POP GAS CALL ISZERO DUP1 ISZERO PUSH2 0x348 JUMPI RETURNDATASIZE PUSH1 0x0 DUP1 RETURNDATACOPY RETURNDATASIZE PUSH1 0x0 REVERT JUMPDEST POP POP POP POP PUSH1 0x0 PUSH1 0x1 DUP3 PUSH2 0x35B SWAP2 SWAP1 PUSH2 0x1402 JUMP JUMPDEST DUP2 SLOAD DUP2 LT PUSH2 0x36B JUMPI PUSH2 0x36B PUSH2 0x1459 JUMP JUMPDEST PUSH1 0x0 SWAP2 DUP3 MSTORE PUSH1 0x20 DUP3 KECCAK256 PUSH1 0xB SWAP1 SWAP2 MUL ADD DUP2 DUP2 SSTORE PUSH1 0x1 DUP2 ADD DUP3 SWAP1 SSTORE PUSH1 0x2 DUP2 ADD DUP3 SWAP1 SSTORE PUSH1 0x3 DUP2 ADD DUP3 SWAP1 SSTORE PUSH1 0x4 DUP2 ADD DUP3 SWAP1 SSTORE PUSH1 0x5 DUP2 ADD DUP3 SWAP1 SSTORE PUSH1 0x6 DUP2 ADD DUP3 SWAP1 SSTORE PUSH1 0x7 DUP2 ADD DUP3 SWAP1 SSTORE PUSH1 0x8 DUP2 ADD DUP3 SWAP1 SSTORE PUSH1 0x9 DUP2 ADD DUP1 SLOAD PUSH1 0x1 PUSH1 0x1 PUSH1 0xA0 SHL SUB NOT SWAP1 DUP2 AND SWAP1 SWAP2 SSTORE PUSH1 0xA SWAP1 SWAP2 ADD DUP1 SLOAD SWAP1 SWAP2 AND SWAP1 SSTORE PUSH1 0x40 MLOAD DUP3 SWAP2 PUSH32 0xF6EC89ADE5E808FA9649AF4BFC0A8A0310DBAED12A78AFCB4AC94969EC960E71 SWAP2 LOG2 POP JUMP JUMPDEST PUSH1 0x1 SLOAD PUSH1 0x40 MLOAD PUSH4 0x31A9108F PUSH1 0xE1 SHL DUP2 MSTORE PUSH1 0x4 DUP2 ADD DUP7 SWAP1 MSTORE CALLER SWAP2 PUSH1 0x1 PUSH1 0x1 PUSH1 0xA0 SHL SUB AND SWAP1 PUSH4 0x6352211E SWAP1 PUSH1 0x24 ADD PUSH1 0x20 PUSH1 0x40 MLOAD DUP1 DUP4 SUB DUP2 DUP7 DUP1 EXTCODESIZE ISZERO DUP1 ISZERO PUSH2 0x445 JUMPI PUSH1 0x0 DUP1 REVERT JUMPDEST POP GAS STATICCALL ISZERO DUP1 ISZERO PUSH2 0x459 JUMPI RETURNDATASIZE PUSH1 0x0 DUP1 RETURNDATACOPY RETURNDATASIZE PUSH1 0x0 REVERT JUMPDEST POP POP POP POP PUSH1 0x40 MLOAD RETURNDATASIZE PUSH1 0x1F NOT PUSH1 0x1F DUP3 ADD AND DUP3 ADD DUP1 PUSH1 0x40 MSTORE POP DUP2 ADD SWAP1 PUSH2 0x47D SWAP2 SWAP1 PUSH2 0x1215 JUMP JUMPDEST PUSH1 0x1 PUSH1 0x1 PUSH1 0xA0 SHL SUB AND EQ PUSH2 0x490 JUMPI PUSH1 0x0 DUP1 REVERT JUMPDEST PUSH1 0x0 PUSH2 0x4A1 PUSH5 0x100000000 TIMESTAMP PUSH2 0x1419 JUMP JUMPDEST SWAP1 POP PUSH1 0x0 PUSH2 0x4AF DUP5 DUP5 PUSH2 0x13E3 JUMP JUMPDEST PUSH2 0x4B9 SWAP1 DUP7 PUSH2 0x13E3 JUMP JUMPDEST PUSH1 0x1 SLOAD PUSH1 0x40 MLOAD PUSH4 0x1161A04B PUSH1 0xE3 SHL DUP2 MSTORE PUSH1 0x4 DUP2 ADD DUP10 SWAP1 MSTORE SWAP2 SWAP3 POP PUSH1 0x0 SWAP2 PUSH1 0x1 PUSH1 0x1 PUSH1 0xA0 SHL SUB SWAP1 SWAP2 AND SWAP1 PUSH4 0x8B0D0258 SWAP1 PUSH1 0x24 ADD PUSH1 0x20 PUSH1 0x40 MLOAD DUP1 DUP4 SUB DUP2 DUP7 DUP1 EXTCODESIZE ISZERO DUP1 ISZERO PUSH2 0x503 JUMPI PUSH1 0x0 DUP1 REVERT JUMPDEST POP GAS STATICCALL ISZERO DUP1 ISZERO PUSH2 0x517 JUMPI RETURNDATASIZE PUSH1 0x0 DUP1 RETURNDATACOPY RETURNDATASIZE PUSH1 0x0 REVERT JUMPDEST POP POP POP POP PUSH1 0x40 MLOAD RETURNDATASIZE PUSH1 0x1F NOT PUSH1 0x1F DUP3 ADD AND DUP3 ADD DUP1 PUSH1 0x40 MSTORE POP DUP2 ADD SWAP1 PUSH2 0x53B SWAP2 SWAP1 PUSH2 0x12BF JUMP JUMPDEST SWAP1 POP PUSH1 0x0 PUSH2 0x54A DUP6 PUSH1 0x2 PUSH2 0x13E3 JUMP JUMPDEST PUSH1 0x0 DUP1 SLOAD SWAP2 SWAP3 POP SWAP1 PUSH2 0x55D SWAP1 PUSH1 0x1 PUSH2 0x13B7 JUMP JUMPDEST SWAP1 POP PUSH1 0x0 PUSH1 0x40 MLOAD DUP1 PUSH2 0x160 ADD PUSH1 0x40 MSTORE DUP1 DUP12 DUP2 MSTORE PUSH1 0x20 ADD DUP4 DUP2 MSTORE PUSH1 0x20 ADD DUP6 DUP2 MSTORE PUSH1 0x20 ADD DUP11 DUP2 MSTORE PUSH1 0x20 ADD DUP10 DUP2 MSTORE PUSH1 0x20 ADD DUP9 DUP2 MSTORE PUSH1 0x20 ADD DUP7 DUP2 MSTORE PUSH1 0x20 ADD DUP5 DUP2 MSTORE PUSH1 0x20 ADD PUSH1 0x0 DUP2 MSTORE PUSH1 0x20 ADD PUSH1 0x1 PUSH1 0x0 SWAP1 SLOAD SWAP1 PUSH2 0x100 EXP SWAP1 DIV PUSH1 0x1 PUSH1 0x1 PUSH1 0xA0 SHL SUB AND PUSH1 0x1 PUSH1 0x1 PUSH1 0xA0 SHL SUB AND PUSH4 0x6352211E DUP14 PUSH1 0x40 MLOAD DUP3 PUSH4 0xFFFFFFFF AND PUSH1 0xE0 SHL DUP2 MSTORE PUSH1 0x4 ADD PUSH2 0x5E7 SWAP2 DUP2 MSTORE PUSH1 0x20 ADD SWAP1 JUMP JUMPDEST PUSH1 0x20 PUSH1 0x40 MLOAD DUP1 DUP4 SUB DUP2 DUP7 DUP1 EXTCODESIZE ISZERO DUP1 ISZERO PUSH2 0x5FF JUMPI PUSH1 0x0 DUP1 REVERT JUMPDEST POP GAS STATICCALL ISZERO DUP1 ISZERO PUSH2 0x613 JUMPI RETURNDATASIZE PUSH1 0x0 DUP1 RETURNDATACOPY RETURNDATASIZE PUSH1 0x0 REVERT JUMPDEST POP POP POP POP PUSH1 0x40 MLOAD RETURNDATASIZE PUSH1 0x1F NOT PUSH1 0x1F DUP3 ADD AND DUP3 ADD DUP1 PUSH1 0x40 MSTORE POP DUP2 ADD SWAP1 PUSH2 0x637 SWAP2 SWAP1 PUSH2 0x1215 JUMP JUMPDEST PUSH1 0x1 PUSH1 0x1 PUSH1 0xA0 SHL SUB SWAP1 DUP2 AND DUP3 MSTORE PUSH1 0x0 PUSH1 0x20 SWAP3 DUP4 ADD DUP2 SWAP1 MSTORE DUP1 SLOAD PUSH1 0x1 DUP2 DUP2 ADD DUP4 SSTORE SWAP2 DUP1 MSTORE DUP5 MLOAD PUSH1 0xB SWAP1 SWAP2 MUL PUSH32 0x290DECD9548B62A8D60345A988386FC84BA6BC95484008F6362F93160EF3E563 DUP2 ADD SWAP2 SWAP1 SWAP2 SSTORE SWAP3 DUP5 ADD MLOAD PUSH32 0x290DECD9548B62A8D60345A988386FC84BA6BC95484008F6362F93160EF3E564 DUP5 ADD SSTORE PUSH1 0x40 DUP1 DUP6 ADD MLOAD PUSH32 0x290DECD9548B62A8D60345A988386FC84BA6BC95484008F6362F93160EF3E565 DUP6 ADD SSTORE PUSH1 0x60 DUP6 ADD MLOAD PUSH32 0x290DECD9548B62A8D60345A988386FC84BA6BC95484008F6362F93160EF3E566 DUP6 ADD SSTORE PUSH1 0x80 DUP6 ADD MLOAD PUSH32 0x290DECD9548B62A8D60345A988386FC84BA6BC95484008F6362F93160EF3E567 DUP6 ADD SSTORE PUSH1 0xA0 DUP6 ADD MLOAD PUSH32 0x290DECD9548B62A8D60345A988386FC84BA6BC95484008F6362F93160EF3E568 DUP6 ADD SSTORE PUSH1 0xC0 DUP6 ADD MLOAD PUSH32 0x290DECD9548B62A8D60345A988386FC84BA6BC95484008F6362F93160EF3E569 DUP6 ADD SSTORE PUSH1 0xE0 DUP6 ADD MLOAD PUSH32 0x290DECD9548B62A8D60345A988386FC84BA6BC95484008F6362F93160EF3E56A DUP6 ADD SSTORE PUSH2 0x100 DUP6 ADD MLOAD PUSH32 0x290DECD9548B62A8D60345A988386FC84BA6BC95484008F6362F93160EF3E56B DUP6 ADD SSTORE PUSH2 0x120 DUP6 ADD MLOAD PUSH32 0x290DECD9548B62A8D60345A988386FC84BA6BC95484008F6362F93160EF3E56C DUP6 ADD DUP1 SLOAD SWAP2 DUP6 AND PUSH1 0x1 PUSH1 0x1 PUSH1 0xA0 SHL SUB NOT SWAP3 DUP4 AND OR SWAP1 SSTORE PUSH2 0x140 DUP7 ADD MLOAD PUSH32 0x290DECD9548B62A8D60345A988386FC84BA6BC95484008F6362F93160EF3E56D SWAP1 SWAP6 ADD DUP1 SLOAD SWAP6 DUP6 AND SWAP6 SWAP1 SWAP2 AND SWAP5 SWAP1 SWAP5 OR SWAP1 SWAP4 SSTORE SLOAD PUSH1 0x5 SLOAD SWAP3 MLOAD PUSH4 0x21421707 PUSH1 0xE1 SHL DUP2 MSTORE SWAP4 SWAP5 POP DUP2 AND SWAP3 PUSH4 0x42842E0E SWAP3 PUSH2 0x877 SWAP3 CALLER SWAP3 SWAP2 AND SWAP1 DUP16 SWAP1 PUSH1 0x4 ADD PUSH2 0x1393 JUMP JUMPDEST PUSH1 0x0 PUSH1 0x40 MLOAD DUP1 DUP4 SUB DUP2 PUSH1 0x0 DUP8 DUP1 EXTCODESIZE ISZERO DUP1 ISZERO PUSH2 0x891 JUMPI PUSH1 0x0 DUP1 REVERT JUMPDEST POP GAS CALL ISZERO DUP1 ISZERO PUSH2 0x8A5 JUMPI RETURNDATASIZE PUSH1 0x0 DUP1 RETURNDATACOPY RETURNDATASIZE PUSH1 0x0 REVERT JUMPDEST POP POP PUSH1 0x40 DUP1 MLOAD DUP14 DUP2 MSTORE PUSH1 0x20 DUP2 ADD DUP14 SWAP1 MSTORE SWAP1 DUP2 ADD DUP12 SWAP1 MSTORE PUSH1 0x60 DUP2 ADD DUP11 SWAP1 MSTORE PUSH32 0x5872C68779D81642C055CD59D2DCB5ACDD5DCFED8826071FFBB442C79B552B56 SWAP3 POP PUSH1 0x80 ADD SWAP1 POP PUSH1 0x40 MLOAD DUP1 SWAP2 SUB SWAP1 LOG1 POP POP POP POP POP POP POP POP POP POP JUMP JUMPDEST PUSH1 0x0 DUP2 DUP2 SLOAD DUP2 LT PUSH2 0x90E JUMPI PUSH1 0x0 DUP1 REVERT JUMPDEST PUSH1 0x0 SWAP2 DUP3 MSTORE PUSH1 0x20 SWAP1 SWAP2 KECCAK256 PUSH1 0xB SWAP1 SWAP2 MUL ADD DUP1 SLOAD PUSH1 0x1 DUP3 ADD SLOAD PUSH1 0x2 DUP4 ADD SLOAD PUSH1 0x3 DUP5 ADD SLOAD PUSH1 0x4 DUP6 ADD SLOAD PUSH1 0x5 DUP7 ADD SLOAD PUSH1 0x6 DUP8 ADD SLOAD PUSH1 0x7 DUP9 ADD SLOAD PUSH1 0x8 DUP10 ADD SLOAD PUSH1 0x9 DUP11 ADD SLOAD PUSH1 0xA SWAP1 SWAP11 ADD SLOAD SWAP9 SWAP11 POP SWAP7 SWAP9 SWAP6 SWAP8 SWAP5 SWAP7 SWAP4 SWAP6 SWAP3 SWAP5 SWAP2 SWAP4 SWAP1 SWAP3 SWAP1 SWAP2 PUSH1 0x1 PUSH1 0x1 PUSH1 0xA0 SHL SUB SWAP2 DUP3 AND SWAP2 AND DUP12 JUMP JUMPDEST DUP1 PUSH1 0x0 PUSH2 0x984 PUSH1 0x1 DUP6 PUSH2 0x1402 JUMP JUMPDEST DUP2 SLOAD DUP2 LT PUSH2 0x994 JUMPI PUSH2 0x994 PUSH2 0x1459 JUMP JUMPDEST SWAP1 PUSH1 0x0 MSTORE PUSH1 0x20 PUSH1 0x0 KECCAK256 SWAP1 PUSH1 0xB MUL ADD PUSH1 0x3 ADD SLOAD EQ PUSH2 0x9E3 JUMPI PUSH1 0x40 MLOAD PUSH3 0x461BCD PUSH1 0xE5 SHL DUP2 MSTORE PUSH1 0x20 PUSH1 0x4 DUP3 ADD MSTORE PUSH1 0xD PUSH1 0x24 DUP3 ADD MSTORE PUSH13 0x125B98DBDC9C9958DD08189A59 PUSH1 0x9A SHL PUSH1 0x44 DUP3 ADD MSTORE PUSH1 0x64 ADD PUSH2 0x2A5 JUMP JUMPDEST PUSH1 0x4 SLOAD PUSH2 0xA34 SWAP1 PUSH1 0x1 PUSH1 0x1 PUSH1 0xA0 SHL SUB AND CALLER PUSH1 0x0 PUSH2 0xA01 PUSH1 0x1 DUP8 PUSH2 0x1402 JUMP JUMPDEST DUP2 SLOAD DUP2 LT PUSH2 0xA11 JUMPI PUSH2 0xA11 PUSH2 0x1459 JUMP JUMPDEST PUSH1 0x0 SWAP2 DUP3 MSTORE PUSH1 0x20 SWAP1 SWAP2 KECCAK256 PUSH1 0x9 PUSH1 0xB SWAP1 SWAP3 MUL ADD ADD SLOAD PUSH1 0x1 PUSH1 0x1 PUSH1 0xA0 SHL SUB AND DUP5 PUSH2 0x10E9 JUMP JUMPDEST PUSH1 0x1 PUSH1 0x0 PUSH2 0xA42 DUP3 DUP6 PUSH2 0x1402 JUMP JUMPDEST DUP2 SLOAD DUP2 LT PUSH2 0xA52 JUMPI PUSH2 0xA52 PUSH2 0x1459 JUMP JUMPDEST SWAP1 PUSH1 0x0 MSTORE PUSH1 0x20 PUSH1 0x0 KECCAK256 SWAP1 PUSH1 0xB MUL ADD PUSH1 0x8 ADD DUP2 SWAP1 SSTORE POP CALLER PUSH1 0x0 PUSH1 0x1 DUP5 PUSH2 0xA77 SWAP2 SWAP1 PUSH2 0x1402 JUMP JUMPDEST DUP2 SLOAD DUP2 LT PUSH2 0xA87 JUMPI PUSH2 0xA87 PUSH2 0x1459 JUMP JUMPDEST SWAP1 PUSH1 0x0 MSTORE PUSH1 0x20 PUSH1 0x0 KECCAK256 SWAP1 PUSH1 0xB MUL ADD PUSH1 0xA ADD PUSH1 0x0 PUSH2 0x100 EXP DUP2 SLOAD DUP2 PUSH1 0x1 PUSH1 0x1 PUSH1 0xA0 SHL SUB MUL NOT AND SWAP1 DUP4 PUSH1 0x1 PUSH1 0x1 PUSH1 0xA0 SHL SUB AND MUL OR SWAP1 SSTORE POP POP POP JUMP JUMPDEST PUSH1 0x0 PUSH2 0xACD PUSH1 0x1 DUP6 PUSH2 0x1402 JUMP JUMPDEST DUP2 SLOAD DUP2 LT PUSH2 0xADD JUMPI PUSH2 0xADD PUSH2 0x1459 JUMP JUMPDEST SWAP1 PUSH1 0x0 MSTORE PUSH1 0x20 PUSH1 0x0 KECCAK256 SWAP1 PUSH1 0xB MUL ADD PUSH1 0x4 ADD SLOAD DUP3 GT PUSH2 0xD64 JUMPI DUP2 PUSH1 0x64 PUSH1 0x0 PUSH2 0xB05 PUSH1 0x1 DUP8 PUSH2 0x1402 JUMP JUMPDEST DUP2 SLOAD DUP2 LT PUSH2 0xB15 JUMPI PUSH2 0xB15 PUSH2 0x1459 JUMP JUMPDEST SWAP1 PUSH1 0x0 MSTORE PUSH1 0x20 PUSH1 0x0 KECCAK256 SWAP1 PUSH1 0xB MUL ADD PUSH1 0x5 ADD SLOAD PUSH2 0xB31 SWAP2 SWAP1 PUSH2 0x13CF JUMP JUMPDEST PUSH1 0x0 PUSH2 0xB3E PUSH1 0x1 DUP8 PUSH2 0x1402 JUMP JUMPDEST DUP2 SLOAD DUP2 LT PUSH2 0xB4E JUMPI PUSH2 0xB4E PUSH2 0x1459 JUMP JUMPDEST SWAP1 PUSH1 0x0 MSTORE PUSH1 0x20 PUSH1 0x0 KECCAK256 SWAP1 PUSH1 0xB MUL ADD PUSH1 0x3 ADD SLOAD PUSH2 0xB6A SWAP2 SWAP1 PUSH2 0x13E3 JUMP JUMPDEST PUSH2 0xB74 SWAP2 SWAP1 PUSH2 0x13E3 JUMP JUMPDEST PUSH1 0x0 PUSH2 0xB81 PUSH1 0x1 DUP7 PUSH2 0x1402 JUMP JUMPDEST DUP2 SLOAD DUP2 LT PUSH2 0xB91 JUMPI PUSH2 0xB91 PUSH2 0x1459 JUMP JUMPDEST SWAP1 PUSH1 0x0 MSTORE PUSH1 0x20 PUSH1 0x0 KECCAK256 SWAP1 PUSH1 0xB MUL ADD PUSH1 0x3 ADD SLOAD PUSH2 0xBAD SWAP2 SWAP1 PUSH2 0x13B7 JUMP JUMPDEST DUP2 LT ISZERO PUSH2 0xBB9 JUMPI PUSH1 0x0 DUP1 REVERT JUMPDEST PUSH1 0x4 SLOAD PUSH2 0xCC1 SWAP1 PUSH1 0x1 PUSH1 0x1 PUSH1 0xA0 SHL SUB AND CALLER PUSH1 0x0 PUSH2 0xBD7 PUSH1 0x1 DUP9 PUSH2 0x1402 JUMP JUMPDEST DUP2 SLOAD DUP2 LT PUSH2 0xBE7 JUMPI PUSH2 0xBE7 PUSH2 0x1459 JUMP JUMPDEST PUSH1 0x0 SWAP2 DUP3 MSTORE PUSH1 0x20 DUP3 KECCAK256 PUSH1 0xA PUSH1 0xB SWAP1 SWAP3 MUL ADD ADD SLOAD PUSH1 0x1 PUSH1 0x1 PUSH1 0xA0 SHL SUB AND SWAP1 DUP7 SWAP1 PUSH1 0x64 SWAP1 PUSH2 0xC14 PUSH1 0x1 DUP12 PUSH2 0x1402 JUMP JUMPDEST DUP2 SLOAD DUP2 LT PUSH2 0xC24 JUMPI PUSH2 0xC24 PUSH2 0x1459 JUMP JUMPDEST SWAP1 PUSH1 0x0 MSTORE PUSH1 0x20 PUSH1 0x0 KECCAK256 SWAP1 PUSH1 0xB MUL ADD PUSH1 0x5 ADD SLOAD PUSH2 0xC40 SWAP2 SWAP1 PUSH2 0x13CF JUMP JUMPDEST PUSH1 0x0 PUSH2 0xC4D PUSH1 0x1 DUP12 PUSH2 0x1402 JUMP JUMPDEST DUP2 SLOAD DUP2 LT PUSH2 0xC5D JUMPI PUSH2 0xC5D PUSH2 0x1459 JUMP JUMPDEST SWAP1 PUSH1 0x0 MSTORE PUSH1 0x20 PUSH1 0x0 KECCAK256 SWAP1 PUSH1 0xB MUL ADD PUSH1 0x3 ADD SLOAD PUSH2 0xC79 SWAP2 SWAP1 PUSH2 0x13E3 JUMP JUMPDEST PUSH2 0xC83 SWAP2 SWAP1 PUSH2 0x13E3 JUMP JUMPDEST PUSH1 0x0 PUSH2 0xC90 PUSH1 0x1 DUP11 PUSH2 0x1402 JUMP JUMPDEST DUP2 SLOAD DUP2 LT PUSH2 0xCA0 JUMPI PUSH2 0xCA0 PUSH2 0x1459 JUMP JUMPDEST SWAP1 PUSH1 0x0 MSTORE PUSH1 0x20 PUSH1 0x0 KECCAK256 SWAP1 PUSH1 0xB MUL ADD PUSH1 0x3 ADD SLOAD PUSH2 0xCBC SWAP2 SWAP1 PUSH2 0x13B7 JUMP JUMPDEST PUSH2 0x10E9 JUMP JUMPDEST PUSH1 0x1 DUP1 SLOAD PUSH1 0x5 SLOAD PUSH1 0x1 PUSH1 0x1 PUSH1 0xA0 SHL SUB SWAP2 DUP3 AND SWAP3 PUSH4 0x42842E0E SWAP3 SWAP1 SWAP2 AND SWAP1 CALLER SWAP1 PUSH1 0x0 SWAP1 PUSH2 0xCED SWAP1 DUP10 PUSH2 0x1402 JUMP JUMPDEST DUP2 SLOAD DUP2 LT PUSH2 0xCFD JUMPI PUSH2 0xCFD PUSH2 0x1459 JUMP JUMPDEST SWAP1 PUSH1 0x0 MSTORE PUSH1 0x20 PUSH1 0x0 KECCAK256 SWAP1 PUSH1 0xB MUL ADD PUSH1 0x0 ADD SLOAD PUSH1 0x40 MLOAD DUP5 PUSH4 0xFFFFFFFF AND PUSH1 0xE0 SHL DUP2 MSTORE PUSH1 0x4 ADD PUSH2 0xD2D SWAP4 SWAP3 SWAP2 SWAP1 PUSH2 0x1393 JUMP JUMPDEST PUSH1 0x0 PUSH1 0x40 MLOAD DUP1 DUP4 SUB DUP2 PUSH1 0x0 DUP8 DUP1 EXTCODESIZE ISZERO DUP1 ISZERO PUSH2 0xD47 JUMPI PUSH1 0x0 DUP1 REVERT JUMPDEST POP GAS CALL ISZERO DUP1 ISZERO PUSH2 0xD5B JUMPI RETURNDATASIZE PUSH1 0x0 DUP1 RETURNDATACOPY RETURNDATASIZE PUSH1 0x0 REVERT JUMPDEST POP POP POP POP PUSH2 0x10B5 JUMP JUMPDEST PUSH1 0x3 PUSH1 0x0 PUSH2 0xD73 PUSH1 0x1 DUP7 PUSH2 0x1402 JUMP JUMPDEST DUP2 SLOAD DUP2 LT PUSH2 0xD83 JUMPI PUSH2 0xD83 PUSH2 0x1459 JUMP JUMPDEST SWAP1 PUSH1 0x0 MSTORE PUSH1 0x20 PUSH1 0x0 KECCAK256 SWAP1 PUSH1 0xB MUL ADD PUSH1 0x4 ADD SLOAD DUP4 PUSH2 0xDA0 SWAP2 SWAP1 PUSH2 0x1402 JUMP JUMPDEST GT PUSH2 0xF9E JUMPI PUSH1 0x0 PUSH1 0x64 DUP2 PUSH2 0xDB5 PUSH1 0x1 DUP8 PUSH2 0x1402 JUMP JUMPDEST DUP2 SLOAD DUP2 LT PUSH2 0xDC5 JUMPI PUSH2 0xDC5 PUSH2 0x1459 JUMP JUMPDEST SWAP1 PUSH1 0x0 MSTORE PUSH1 0x20 PUSH1 0x0 KECCAK256 SWAP1 PUSH1 0xB MUL ADD PUSH1 0x7 ADD SLOAD PUSH1 0x0 PUSH1 0x1 DUP8 PUSH2 0xDE6 SWAP2 SWAP1 PUSH2 0x1402 JUMP JUMPDEST DUP2 SLOAD DUP2 LT PUSH2 0xDF6 JUMPI PUSH2 0xDF6 PUSH2 0x1459 JUMP JUMPDEST SWAP1 PUSH1 0x0 MSTORE PUSH1 0x20 PUSH1 0x0 KECCAK256 SWAP1 PUSH1 0xB MUL ADD PUSH1 0x4 ADD SLOAD DUP6 PUSH2 0xE13 SWAP2 SWAP1 PUSH2 0x1402 JUMP JUMPDEST PUSH2 0xE1D SWAP2 SWAP1 PUSH2 0x13E3 JUMP JUMPDEST PUSH2 0xE27 SWAP2 SWAP1 PUSH2 0x13CF JUMP JUMPDEST PUSH1 0x0 PUSH2 0xE34 PUSH1 0x1 DUP8 PUSH2 0x1402 JUMP JUMPDEST DUP2 SLOAD DUP2 LT PUSH2 0xE44 JUMPI PUSH2 0xE44 PUSH2 0x1459 JUMP JUMPDEST SWAP1 PUSH1 0x0 MSTORE PUSH1 0x20 PUSH1 0x0 KECCAK256 SWAP1 PUSH1 0xB MUL ADD PUSH1 0x6 ADD SLOAD PUSH1 0x0 PUSH1 0x1 DUP8 PUSH2 0xE65 SWAP2 SWAP1 PUSH2 0x1402 JUMP JUMPDEST DUP2 SLOAD DUP2 LT PUSH2 0xE75 JUMPI PUSH2 0xE75 PUSH2 0x1459 JUMP JUMPDEST SWAP1 PUSH1 0x0 MSTORE PUSH1 0x20 PUSH1 0x0 KECCAK256 SWAP1 PUSH1 0xB MUL ADD PUSH1 0x3 ADD SLOAD PUSH2 0xE91 SWAP2 SWAP1 PUSH2 0x13B7 JUMP JUMPDEST PUSH2 0xE9B SWAP2 SWAP1 PUSH2 0x13B7 JUMP JUMPDEST SWAP1 POP DUP1 DUP3 EQ PUSH2 0xEA9 JUMPI PUSH1 0x0 DUP1 REVERT JUMPDEST PUSH1 0x4 SLOAD PUSH2 0xEFA SWAP1 PUSH1 0x1 PUSH1 0x1 PUSH1 0xA0 SHL SUB AND CALLER PUSH1 0x0 PUSH2 0xEC7 PUSH1 0x1 DUP10 PUSH2 0x1402 JUMP JUMPDEST DUP2 SLOAD DUP2 LT PUSH2 0xED7 JUMPI PUSH2 0xED7 PUSH2 0x1459 JUMP JUMPDEST PUSH1 0x0 SWAP2 DUP3 MSTORE PUSH1 0x20 SWAP1 SWAP2 KECCAK256 PUSH1 0xA PUSH1 0xB SWAP1 SWAP3 MUL ADD ADD SLOAD PUSH1 0x1 PUSH1 0x1 PUSH1 0xA0 SHL SUB AND DUP5 PUSH2 0x10E9 JUMP JUMPDEST PUSH1 0x1 DUP1 SLOAD PUSH1 0x5 SLOAD PUSH1 0x1 PUSH1 0x1 PUSH1 0xA0 SHL SUB SWAP2 DUP3 AND SWAP3 PUSH4 0x42842E0E SWAP3 SWAP1 SWAP2 AND SWAP1 CALLER SWAP1 PUSH1 0x0 SWAP1 PUSH2 0xF26 SWAP1 DUP11 PUSH2 0x1402 JUMP JUMPDEST DUP2 SLOAD DUP2 LT PUSH2 0xF36 JUMPI PUSH2 0xF36 PUSH2 0x1459 JUMP JUMPDEST SWAP1 PUSH1 0x0 MSTORE PUSH1 0x20 PUSH1 0x0 KECCAK256 SWAP1 PUSH1 0xB MUL ADD PUSH1 0x0 ADD SLOAD PUSH1 0x40 MLOAD DUP5 PUSH4 0xFFFFFFFF AND PUSH1 0xE0 SHL DUP2 MSTORE PUSH1 0x4 ADD PUSH2 0xF66 SWAP4 SWAP3 SWAP2 SWAP1 PUSH2 0x1393 JUMP JUMPDEST PUSH1 0x0 PUSH1 0x40 MLOAD DUP1 DUP4 SUB DUP2 PUSH1 0x0 DUP8 DUP1 EXTCODESIZE ISZERO DUP1 ISZERO PUSH2 0xF80 JUMPI PUSH1 0x0 DUP1 REVERT JUMPDEST POP GAS CALL ISZERO DUP1 ISZERO PUSH2 0xF94 JUMPI RETURNDATASIZE PUSH1 0x0 DUP1 RETURNDATACOPY RETURNDATASIZE PUSH1 0x0 REVERT JUMPDEST POP POP POP POP POP PUSH2 0x10B5 JUMP JUMPDEST PUSH1 0x3 PUSH1 0x0 PUSH2 0xFAD PUSH1 0x1 DUP7 PUSH2 0x1402 JUMP JUMPDEST DUP2 SLOAD DUP2 LT PUSH2 0xFBD JUMPI PUSH2 0xFBD PUSH2 0x1459 JUMP JUMPDEST SWAP1 PUSH1 0x0 MSTORE PUSH1 0x20 PUSH1 0x0 KECCAK256 SWAP1 PUSH1 0xB MUL ADD PUSH1 0x4 ADD SLOAD DUP4 PUSH2 0xFDA SWAP2 SWAP1 PUSH2 0x1402 JUMP JUMPDEST GT ISZERO PUSH2 0x10B5 JUMPI PUSH1 0x1 DUP1 SLOAD PUSH1 0x5 SLOAD PUSH1 0x1 PUSH1 0x1 PUSH1 0xA0 SHL SUB SWAP2 DUP3 AND SWAP3 PUSH4 0x42842E0E SWAP3 SWAP1 SWAP2 AND SWAP1 PUSH1 0x0 SWAP1 PUSH2 0x100A SWAP1 DUP9 PUSH2 0x1402 JUMP JUMPDEST DUP2 SLOAD DUP2 LT PUSH2 0x101A JUMPI PUSH2 0x101A PUSH2 0x1459 JUMP JUMPDEST PUSH1 0x0 SWAP2 DUP3 MSTORE PUSH1 0x20 DUP3 KECCAK256 PUSH1 0xA PUSH1 0xB SWAP1 SWAP3 MUL ADD ADD SLOAD PUSH1 0x1 PUSH1 0x1 PUSH1 0xA0 SHL SUB AND SWAP1 PUSH2 0x1042 PUSH1 0x1 DUP10 PUSH2 0x1402 JUMP JUMPDEST DUP2 SLOAD DUP2 LT PUSH2 0x1052 JUMPI PUSH2 0x1052 PUSH2 0x1459 JUMP JUMPDEST SWAP1 PUSH1 0x0 MSTORE PUSH1 0x20 PUSH1 0x0 KECCAK256 SWAP1 PUSH1 0xB MUL ADD PUSH1 0x0 ADD SLOAD PUSH1 0x40 MLOAD DUP5 PUSH4 0xFFFFFFFF AND PUSH1 0xE0 SHL DUP2 MSTORE PUSH1 0x4 ADD PUSH2 0x1082 SWAP4 SWAP3 SWAP2 SWAP1 PUSH2 0x1393 JUMP JUMPDEST PUSH1 0x0 PUSH1 0x40 MLOAD DUP1 DUP4 SUB DUP2 PUSH1 0x0 DUP8 DUP1 EXTCODESIZE ISZERO DUP1 ISZERO PUSH2 0x109C JUMPI PUSH1 0x0 DUP1 REVERT JUMPDEST POP GAS CALL ISZERO DUP1 ISZERO PUSH2 0x10B0 JUMPI RETURNDATASIZE PUSH1 0x0 DUP1 RETURNDATACOPY RETURNDATASIZE PUSH1 0x0 REVERT JUMPDEST POP POP POP POP JUMPDEST DUP1 DUP3 DUP5 PUSH32 0x84150D563C486763473E5A92EEB9297B1EE15FD60A18BC0B93FFE30BDA41B2D0 PUSH1 0x40 MLOAD PUSH1 0x40 MLOAD DUP1 SWAP2 SUB SWAP1 LOG4 POP POP POP JUMP JUMPDEST PUSH1 0x0 DUP1 DUP6 PUSH1 0x1 PUSH1 0x1 PUSH1 0xA0 SHL SUB AND PUSH4 0x23B872DD DUP7 DUP7 DUP7 PUSH1 0x40 MLOAD PUSH1 0x24 ADD PUSH2 0x1110 SWAP4 SWAP3 SWAP2 SWAP1 PUSH2 0x1393 JUMP JUMPDEST PUSH1 0x40 MLOAD PUSH1 0x20 DUP2 DUP4 SUB SUB DUP2 MSTORE SWAP1 PUSH1 0x40 MSTORE SWAP1 PUSH1 0xE0 SHL PUSH1 0x20 DUP3 ADD DUP1 MLOAD PUSH1 0x1 PUSH1 0x1 PUSH1 0xE0 SHL SUB DUP4 DUP2 DUP4 AND OR DUP4 MSTORE POP POP POP POP PUSH1 0x40 MLOAD PUSH2 0x1149 SWAP2 SWAP1 PUSH2 0x1358 JUMP JUMPDEST PUSH1 0x0 PUSH1 0x40 MLOAD DUP1 DUP4 SUB DUP2 PUSH1 0x0 DUP7 GAS CALL SWAP2 POP POP RETURNDATASIZE DUP1 PUSH1 0x0 DUP2 EQ PUSH2 0x1186 JUMPI PUSH1 0x40 MLOAD SWAP2 POP PUSH1 0x1F NOT PUSH1 0x3F RETURNDATASIZE ADD AND DUP3 ADD PUSH1 0x40 MSTORE RETURNDATASIZE DUP3 MSTORE RETURNDATASIZE PUSH1 0x0 PUSH1 0x20 DUP5 ADD RETURNDATACOPY PUSH2 0x118B JUMP JUMPDEST PUSH1 0x60 SWAP2 POP JUMPDEST POP SWAP2 POP SWAP2 POP DUP2 DUP1 ISZERO PUSH2 0x11B5 JUMPI POP DUP1 MLOAD ISZERO DUP1 PUSH2 0x11B5 JUMPI POP DUP1 DUP1 PUSH1 0x20 ADD SWAP1 MLOAD DUP2 ADD SWAP1 PUSH2 0x11B5 SWAP2 SWAP1 PUSH2 0x1284 JUMP JUMPDEST PUSH2 0x120D JUMPI PUSH1 0x40 MLOAD PUSH3 0x461BCD PUSH1 0xE5 SHL DUP2 MSTORE PUSH1 0x20 PUSH1 0x4 DUP3 ADD MSTORE PUSH1 0x24 DUP1 DUP3 ADD MSTORE PUSH32 0x5472616E7366657248656C7065723A205452414E534645525F46524F4D5F4641 PUSH1 0x44 DUP3 ADD MSTORE PUSH4 0x12531151 PUSH1 0xE2 SHL PUSH1 0x64 DUP3 ADD MSTORE PUSH1 0x84 ADD PUSH2 0x2A5 JUMP JUMPDEST POP POP POP POP POP POP JUMP JUMPDEST PUSH1 0x0 PUSH1 0x20 DUP3 DUP5 SUB SLT ISZERO PUSH2 0x1227 JUMPI PUSH1 0x0 DUP1 REVERT JUMPDEST DUP2 MLOAD PUSH2 0x1232 DUP2 PUSH2 0x146F JUMP JUMPDEST SWAP4 SWAP3 POP POP POP JUMP JUMPDEST PUSH1 0x0 DUP1 PUSH1 0x0 PUSH1 0x60 DUP5 DUP7 SUB SLT ISZERO PUSH2 0x124E JUMPI PUSH1 0x0 DUP1 REVERT JUMPDEST DUP4 CALLDATALOAD PUSH2 0x1259 DUP2 PUSH2 0x146F JUMP JUMPDEST SWAP3 POP PUSH1 0x20 DUP5 ADD CALLDATALOAD PUSH2 0x1269 DUP2 PUSH2 0x146F JUMP JUMPDEST SWAP2 POP PUSH1 0x40 DUP5 ADD CALLDATALOAD PUSH2 0x1279 DUP2 PUSH2 0x146F JUMP JUMPDEST DUP1 SWAP2 POP POP SWAP3 POP SWAP3 POP SWAP3 JUMP JUMPDEST PUSH1 0x0 PUSH1 0x20 DUP3 DUP5 SUB SLT ISZERO PUSH2 0x1296 JUMPI PUSH1 0x0 DUP1 REVERT JUMPDEST DUP2 MLOAD DUP1 ISZERO ISZERO DUP2 EQ PUSH2 0x1232 JUMPI PUSH1 0x0 DUP1 REVERT JUMPDEST PUSH1 0x0 PUSH1 0x20 DUP3 DUP5 SUB SLT ISZERO PUSH2 0x12B8 JUMPI PUSH1 0x0 DUP1 REVERT JUMPDEST POP CALLDATALOAD SWAP2 SWAP1 POP JUMP JUMPDEST PUSH1 0x0 PUSH1 0x20 DUP3 DUP5 SUB SLT ISZERO PUSH2 0x12D1 JUMPI PUSH1 0x0 DUP1 REVERT JUMPDEST POP MLOAD SWAP2 SWAP1 POP JUMP JUMPDEST PUSH1 0x0 DUP1 PUSH1 0x40 DUP4 DUP6 SUB SLT ISZERO PUSH2 0x12EB JUMPI PUSH1 0x0 DUP1 REVERT JUMPDEST POP POP DUP1 CALLDATALOAD SWAP3 PUSH1 0x20 SWAP1 SWAP2 ADD CALLDATALOAD SWAP2 POP JUMP JUMPDEST PUSH1 0x0 DUP1 PUSH1 0x0 PUSH1 0x60 DUP5 DUP7 SUB SLT ISZERO PUSH2 0x130F JUMPI PUSH1 0x0 DUP1 REVERT JUMPDEST POP POP DUP2 CALLDATALOAD SWAP4 PUSH1 0x20 DUP4 ADD CALLDATALOAD SWAP4 POP PUSH1 0x40 SWAP1 SWAP3 ADD CALLDATALOAD SWAP2 SWAP1 POP JUMP JUMPDEST PUSH1 0x0 DUP1 PUSH1 0x0 DUP1 PUSH1 0x80 DUP6 DUP8 SUB SLT ISZERO PUSH2 0x133C JUMPI PUSH1 0x0 DUP1 REVERT JUMPDEST POP POP DUP3 CALLDATALOAD SWAP5 PUSH1 0x20 DUP5 ADD CALLDATALOAD SWAP5 POP PUSH1 0x40 DUP5 ADD CALLDATALOAD SWAP4 PUSH1 0x60 ADD CALLDATALOAD SWAP3 POP SWAP1 POP JUMP JUMPDEST PUSH1 0x0 DUP3 MLOAD PUSH1 0x0 JUMPDEST DUP2 DUP2 LT ISZERO PUSH2 0x1379 JUMPI PUSH1 0x20 DUP2 DUP7 ADD DUP2 ADD MLOAD DUP6 DUP4 ADD MSTORE ADD PUSH2 0x135F JUMP JUMPDEST DUP2 DUP2 GT ISZERO PUSH2 0x1388 JUMPI PUSH1 0x0 DUP3 DUP6 ADD MSTORE JUMPDEST POP SWAP2 SWAP1 SWAP2 ADD SWAP3 SWAP2 POP POP JUMP JUMPDEST PUSH1 0x1 PUSH1 0x1 PUSH1 0xA0 SHL SUB SWAP4 DUP5 AND DUP2 MSTORE SWAP2 SWAP1 SWAP3 AND PUSH1 0x20 DUP3 ADD MSTORE PUSH1 0x40 DUP2 ADD SWAP2 SWAP1 SWAP2 MSTORE PUSH1 0x60 ADD SWAP1 JUMP JUMPDEST PUSH1 0x0 DUP3 NOT DUP3 GT ISZERO PUSH2 0x13CA JUMPI PUSH2 0x13CA PUSH2 0x142D JUMP JUMPDEST POP ADD SWAP1 JUMP JUMPDEST PUSH1 0x0 DUP3 PUSH2 0x13DE JUMPI PUSH2 0x13DE PUSH2 0x1443 JUMP JUMPDEST POP DIV SWAP1 JUMP JUMPDEST PUSH1 0x0 DUP2 PUSH1 0x0 NOT DIV DUP4 GT DUP3 ISZERO ISZERO AND ISZERO PUSH2 0x13FD JUMPI PUSH2 0x13FD PUSH2 0x142D JUMP JUMPDEST POP MUL SWAP1 JUMP JUMPDEST PUSH1 0x0 DUP3 DUP3 LT ISZERO PUSH2 0x1414 JUMPI PUSH2 0x1414 PUSH2 0x142D JUMP JUMPDEST POP SUB SWAP1 JUMP JUMPDEST PUSH1 0x0 DUP3 PUSH2 0x1428 JUMPI PUSH2 0x1428 PUSH2 0x1443 JUMP JUMPDEST POP MOD SWAP1 JUMP JUMPDEST PUSH4 0x4E487B71 PUSH1 0xE0 SHL PUSH1 0x0 MSTORE PUSH1 0x11 PUSH1 0x4 MSTORE PUSH1 0x24 PUSH1 0x0 REVERT JUMPDEST PUSH4 0x4E487B71 PUSH1 0xE0 SHL PUSH1 0x0 MSTORE PUSH1 0x12 PUSH1 0x4 MSTORE PUSH1 0x24 PUSH1 0x0 REVERT JUMPDEST PUSH4 0x4E487B71 PUSH1 0xE0 SHL PUSH1 0x0 MSTORE PUSH1 0x32 PUSH1 0x4 MSTORE PUSH1 0x24 PUSH1 0x0 REVERT JUMPDEST PUSH1 0x1 PUSH1 0x1 PUSH1 0xA0 SHL SUB DUP2 AND DUP2 EQ PUSH2 0x1484 JUMPI PUSH1 0x0 DUP1 REVERT JUMPDEST POP JUMP INVALID LOG2 PUSH5 0x6970667358 0x22 SLT KECCAK256 SDIV 0xE0 CALLDATALOAD PUSH4 0x23B28430 0xA5 DUP15 SWAP4 RETURNDATACOPY SWAP11 SWAP1 0xDA 0xA7 PUSH1 0xF BALANCE DUP2 0x4E SGT SHR RETURNDATACOPY LOG2 0xB7 0xC9 PUSH28 0x3A8D577264736F6C63430008070033A26469706673582212205283B6 PUSH18 0xB1544A0B45D94F4E8FA11E8F4BA330873171 0xEC PUSH21 0x3096A0D65A00856364736F6C634300080700330000 "
		},
		"gasEstimates": {
			"creation": {
				"codeDepositCost": "1312200",
				"executionCost": "27210",
				"totalCost": "1339410"
			},
			"external": {
				"agent()": "2391",
				"detonate()": "32018",
				"init(address,address,address)": "infinite",
				"loanMarket()": "2370",
				"owner()": "2319",
				"renounceOwnership()": "28137",
				"transferOwnership(address)": "28353"
			}
		},
		"methodIdentifiers": {
			"agent()": "f5ff5c76",
			"detonate()": "b09614d6",
			"init(address,address,address)": "184b9559",
			"loanMarket()": "81f17f3f",
			"owner()": "8da5cb5b",
			"renounceOwnership()": "715018a6",
			"transferOwnership(address)": "f2fde38b"
		}
	},
	"abi": [
		{
			"anonymous": false,
			"inputs": [
				{
					"indexed": true,
					"internalType": "address",
					"name": "previousOwner",
					"type": "address"
				},
				{
					"indexed": true,
					"internalType": "address",
					"name": "newOwner",
					"type": "address"
				}
			],
			"name": "OwnershipTransferred",
			"type": "event"
		},
		{
			"inputs": [],
			"name": "agent",
			"outputs": [
				{
					"internalType": "address",
					"name": "",
					"type": "address"
				}
			],
			"stateMutability": "view",
			"type": "function"
		},
		{
			"inputs": [],
			"name": "detonate",
			"outputs": [],
			"stateMutability": "nonpayable",
			"type": "function"
		},
		{
			"inputs": [
				{
					"internalType": "address",
					"name": "user",
					"type": "address"
				},
				{
					"internalType": "address",
					"name": "_token",
					"type": "address"
				},
				{
					"internalType": "address",
					"name": "_deposit",
					"type": "address"
				}
			],
			"name": "init",
			"outputs": [],
			"stateMutability": "nonpayable",
			"type": "function"
		},
		{
			"inputs": [],
			"name": "loanMarket",
			"outputs": [
				{
					"internalType": "address",
					"name": "",
					"type": "address"
				}
			],
			"stateMutability": "view",
			"type": "function"
		},
		{
			"inputs": [],
			"name": "owner",
			"outputs": [
				{
					"internalType": "address",
					"name": "",
					"type": "address"
				}
			],
			"stateMutability": "view",
			"type": "function"
		},
		{
			"inputs": [],
			"name": "renounceOwnership",
			"outputs": [],
			"stateMutability": "nonpayable",
			"type": "function"
		},
		{
			"inputs": [
				{
					"internalType": "address",
					"name": "newOwner",
					"type": "address"
				}
			],
			"name": "transferOwnership",
			"outputs": [],
			"stateMutability": "nonpayable",
			"type": "function"
		}
	]
}